{
    "_format": "hh-sol-artifact-1",
    "contractName": "Ballot",
    "sourceName": "contracts/TokenizedBallots.sol",
    "abi": [
        {
            "inputs": [
                {
                    "internalType": "bytes32[]",
                    "name": "proposalNames",
                    "type": "bytes32[]"
                },
                {
                    "internalType": "address",
                    "name": "_voteToken",
                    "type": "address"
                },
                {
                    "internalType": "uint256",
                    "name": "_targetBlockNumber",
                    "type": "uint256"
                }
            ],
            "stateMutability": "nonpayable",
            "type": "constructor"
        },
        {
            "inputs": [
                {
                    "internalType": "uint256",
                    "name": "",
                    "type": "uint256"
                }
            ],
            "name": "proposals",
            "outputs": [
                {
                    "internalType": "bytes32",
                    "name": "name",
                    "type": "bytes32"
                },
                {
                    "internalType": "uint256",
                    "name": "voteCount",
                    "type": "uint256"
                }
            ],
            "stateMutability": "view",
            "type": "function"
        },
        {
            "inputs": [],
            "name": "targetBlockNumber",
            "outputs": [
                {
                    "internalType": "uint256",
                    "name": "",
                    "type": "uint256"
                }
            ],
            "stateMutability": "view",
            "type": "function"
        },
        {
            "inputs": [
                {
                    "internalType": "uint256",
                    "name": "proposal",
                    "type": "uint256"
                },
                {
                    "internalType": "uint256",
                    "name": "amount",
                    "type": "uint256"
                }
            ],
            "name": "vote",
            "outputs": [],
            "stateMutability": "nonpayable",
            "type": "function"
        },
        {
            "inputs": [
                {
                    "internalType": "address",
                    "name": "account",
                    "type": "address"
                }
            ],
            "name": "votePower",
            "outputs": [
                {
                    "internalType": "uint256",
                    "name": "",
                    "type": "uint256"
                }
            ],
            "stateMutability": "view",
            "type": "function"
        },
        {
            "inputs": [],
            "name": "voteToken",
            "outputs": [
                {
                    "internalType": "contract IERC20Votes",
                    "name": "",
                    "type": "address"
                }
            ],
            "stateMutability": "view",
            "type": "function"
        },
        {
            "inputs": [],
            "name": "winnerName",
            "outputs": [
                {
                    "internalType": "bytes32",
                    "name": "winnerName_",
                    "type": "bytes32"
                }
            ],
            "stateMutability": "view",
            "type": "function"
        },
        {
            "inputs": [],
            "name": "winningProposal",
            "outputs": [
                {
                    "internalType": "uint256",
                    "name": "winningProposal_",
                    "type": "uint256"
                }
            ],
            "stateMutability": "view",
            "type": "function"
        }
    ],
    "bytecode": "0x60806040523480156200001157600080fd5b5060405162000d8b38038062000d8b833981810160405281019062000037919062000383565b816000806101000a81548173ffffffffffffffffffffffffffffffffffffffff021916908373ffffffffffffffffffffffffffffffffffffffff1602179055508060018190555060005b8351811015620001155760036040518060400160405280868481518110620000ae57620000ad620003fe565b5b60200260200101518152602001600081525090806001815401808255809150506001900390600052602060002090600202016000909190919091506000820151816000015560208201518160010155505080806200010c906200045c565b91505062000081565b50505050620004a9565b6000604051905090565b600080fd5b600080fd5b600080fd5b6000601f19601f8301169050919050565b7f4e487b7100000000000000000000000000000000000000000000000000000000600052604160045260246000fd5b620001838262000138565b810181811067ffffffffffffffff82111715620001a557620001a462000149565b5b80604052505050565b6000620001ba6200011f565b9050620001c8828262000178565b919050565b600067ffffffffffffffff821115620001eb57620001ea62000149565b5b602082029050602081019050919050565b600080fd5b6000819050919050565b620002168162000201565b81146200022257600080fd5b50565b60008151905062000236816200020b565b92915050565b6000620002536200024d84620001cd565b620001ae565b90508083825260208201905060208402830185811115620002795762000278620001fc565b5b835b81811015620002a6578062000291888262000225565b8452602084019350506020810190506200027b565b5050509392505050565b600082601f830112620002c857620002c762000133565b5b8151620002da8482602086016200023c565b91505092915050565b600073ffffffffffffffffffffffffffffffffffffffff82169050919050565b60006200031082620002e3565b9050919050565b620003228162000303565b81146200032e57600080fd5b50565b600081519050620003428162000317565b92915050565b6000819050919050565b6200035d8162000348565b81146200036957600080fd5b50565b6000815190506200037d8162000352565b92915050565b6000806000606084860312156200039f576200039e62000129565b5b600084015167ffffffffffffffff811115620003c057620003bf6200012e565b5b620003ce86828701620002b0565b9350506020620003e18682870162000331565b9250506040620003f4868287016200036c565b9150509250925092565b7f4e487b7100000000000000000000000000000000000000000000000000000000600052603260045260246000fd5b7f4e487b7100000000000000000000000000000000000000000000000000000000600052601160045260246000fd5b6000620004698262000348565b91507fffffffffffffffffffffffffffffffffffffffffffffffffffffffffffffffff82036200049e576200049d6200042d565b5b600182019050919050565b6108d280620004b96000396000f3fe608060405234801561001057600080fd5b506004361061007d5760003560e01c8063609ff1bd1161005b578063609ff1bd146100ef578063b384abef1461010d578063e2ba53f014610129578063e490e699146101475761007d565b8063013cf08b14610082578063160d66ae146100b35780632a8cd29e146100d1575b600080fd5b61009c6004803603810190610097919061049e565b610177565b6040516100aa9291906104f3565b60405180910390f35b6100bb6101ab565b6040516100c8919061059b565b60405180910390f35b6100d96101cf565b6040516100e691906105b6565b60405180910390f35b6100f76101d5565b60405161010491906105b6565b60405180910390f35b610127600480360381019061012291906105d1565b61025d565b005b61013161033e565b60405161013e9190610611565b60405180910390f35b610161600480360381019061015c919061066a565b610372565b60405161016e91906105b6565b60405180910390f35b6003818154811061018757600080fd5b90600052602060002090600202016000915090508060000154908060010154905082565b60008054906101000a900473ffffffffffffffffffffffffffffffffffffffff1681565b60015481565b6000806000905060005b60038054905081101561025857816003828154811061020157610200610697565b5b9060005260206000209060020201600101541115610245576003818154811061022d5761022c610697565b5b90600052602060002090600202016001015491508092505b8080610250906106f5565b9150506101df565b505090565b8061026733610372565b10156102a8576040517f08c379a000000000000000000000000000000000000000000000000000000000815260040161029f9061079a565b60405180910390fd5b80600383815481106102bd576102bc610697565b5b906000526020600020906002020160010160008282546102dd91906107ba565b9250508190555080600260003373ffffffffffffffffffffffffffffffffffffffff1673ffffffffffffffffffffffffffffffffffffffff168152602001908152602001600020600082825461033391906107ba565b925050819055505050565b6000600361034a6101d5565b8154811061035b5761035a610697565b5b906000526020600020906002020160000154905090565b6000600260003373ffffffffffffffffffffffffffffffffffffffff1673ffffffffffffffffffffffffffffffffffffffff1681526020019081526020016000205460008054906101000a900473ffffffffffffffffffffffffffffffffffffffff1673ffffffffffffffffffffffffffffffffffffffff16633a46b1a8846001546040518363ffffffff1660e01b81526004016104119291906107fd565b602060405180830381865afa15801561042e573d6000803e3d6000fd5b505050506040513d601f19601f82011682018060405250810190610452919061083b565b61045c9190610868565b9050919050565b600080fd5b6000819050919050565b61047b81610468565b811461048657600080fd5b50565b60008135905061049881610472565b92915050565b6000602082840312156104b4576104b3610463565b5b60006104c284828501610489565b91505092915050565b6000819050919050565b6104de816104cb565b82525050565b6104ed81610468565b82525050565b600060408201905061050860008301856104d5565b61051560208301846104e4565b9392505050565b600073ffffffffffffffffffffffffffffffffffffffff82169050919050565b6000819050919050565b600061056161055c6105578461051c565b61053c565b61051c565b9050919050565b600061057382610546565b9050919050565b600061058582610568565b9050919050565b6105958161057a565b82525050565b60006020820190506105b0600083018461058c565b92915050565b60006020820190506105cb60008301846104e4565b92915050565b600080604083850312156105e8576105e7610463565b5b60006105f685828601610489565b925050602061060785828601610489565b9150509250929050565b600060208201905061062660008301846104d5565b92915050565b60006106378261051c565b9050919050565b6106478161062c565b811461065257600080fd5b50565b6000813590506106648161063e565b92915050565b6000602082840312156106805761067f610463565b5b600061068e84828501610655565b91505092915050565b7f4e487b7100000000000000000000000000000000000000000000000000000000600052603260045260246000fd5b7f4e487b7100000000000000000000000000000000000000000000000000000000600052601160045260246000fd5b600061070082610468565b91507fffffffffffffffffffffffffffffffffffffffffffffffffffffffffffffffff8203610732576107316106c6565b5b600182019050919050565b600082825260208201905092915050565b7f4e6f7420656e6f75676820766f746520706f7765720000000000000000000000600082015250565b600061078460158361073d565b915061078f8261074e565b602082019050919050565b600060208201905081810360008301526107b381610777565b9050919050565b60006107c582610468565b91506107d083610468565b92508282019050808211156107e8576107e76106c6565b5b92915050565b6107f78161062c565b82525050565b600060408201905061081260008301856107ee565b61081f60208301846104e4565b9392505050565b60008151905061083581610472565b92915050565b60006020828403121561085157610850610463565b5b600061085f84828501610826565b91505092915050565b600061087382610468565b915061087e83610468565b9250828203905081811115610896576108956106c6565b5b9291505056fea264697066735822122039f0529bd6403f42b1ff762a42b5901cd524004f7563313ac74253587988ba4664736f6c63430008110033",
    "linkReferences": {},
    "deployedLinkReferences": {}
}